{
  "_format": "hh-sol-artifact-1",
  "contractName": "TinyVillage",
  "sourceName": "contracts/TinyVillage.sol",
  "abi": [
    {
      "inputs": [],
      "stateMutability": "nonpayable",
      "type": "constructor"
    },
    {
      "anonymous": false,
      "inputs": [
        {
          "indexed": true,
          "internalType": "address",
          "name": "account",
          "type": "address"
        },
        {
          "indexed": true,
          "internalType": "address",
          "name": "operator",
          "type": "address"
        },
        {
          "indexed": false,
          "internalType": "bool",
          "name": "approved",
          "type": "bool"
        }
      ],
      "name": "ApprovalForAll",
      "type": "event"
    },
    {
      "anonymous": false,
      "inputs": [
        {
          "indexed": true,
          "internalType": "address",
          "name": "operator",
          "type": "address"
        },
        {
          "indexed": true,
          "internalType": "address",
          "name": "from",
          "type": "address"
        },
        {
          "indexed": true,
          "internalType": "address",
          "name": "to",
          "type": "address"
        },
        {
          "indexed": false,
          "internalType": "uint256[]",
          "name": "ids",
          "type": "uint256[]"
        },
        {
          "indexed": false,
          "internalType": "uint256[]",
          "name": "values",
          "type": "uint256[]"
        }
      ],
      "name": "TransferBatch",
      "type": "event"
    },
    {
      "anonymous": false,
      "inputs": [
        {
          "indexed": true,
          "internalType": "address",
          "name": "operator",
          "type": "address"
        },
        {
          "indexed": true,
          "internalType": "address",
          "name": "from",
          "type": "address"
        },
        {
          "indexed": true,
          "internalType": "address",
          "name": "to",
          "type": "address"
        },
        {
          "indexed": false,
          "internalType": "uint256",
          "name": "id",
          "type": "uint256"
        },
        {
          "indexed": false,
          "internalType": "uint256",
          "name": "value",
          "type": "uint256"
        }
      ],
      "name": "TransferSingle",
      "type": "event"
    },
    {
      "anonymous": false,
      "inputs": [
        {
          "indexed": false,
          "internalType": "string",
          "name": "value",
          "type": "string"
        },
        {
          "indexed": true,
          "internalType": "uint256",
          "name": "id",
          "type": "uint256"
        }
      ],
      "name": "URI",
      "type": "event"
    },
    {
      "inputs": [],
      "name": "CASTLE",
      "outputs": [
        {
          "internalType": "uint256",
          "name": "",
          "type": "uint256"
        }
      ],
      "stateMutability": "view",
      "type": "function"
    },
    {
      "inputs": [],
      "name": "FARM",
      "outputs": [
        {
          "internalType": "uint256",
          "name": "",
          "type": "uint256"
        }
      ],
      "stateMutability": "view",
      "type": "function"
    },
    {
      "inputs": [],
      "name": "MILL",
      "outputs": [
        {
          "internalType": "uint256",
          "name": "",
          "type": "uint256"
        }
      ],
      "stateMutability": "view",
      "type": "function"
    },
    {
      "inputs": [],
      "name": "MINE",
      "outputs": [
        {
          "internalType": "uint256",
          "name": "",
          "type": "uint256"
        }
      ],
      "stateMutability": "view",
      "type": "function"
    },
    {
      "inputs": [],
      "name": "VILLAGE",
      "outputs": [
        {
          "internalType": "uint256",
          "name": "",
          "type": "uint256"
        }
      ],
      "stateMutability": "view",
      "type": "function"
    },
    {
      "inputs": [
        {
          "internalType": "address",
          "name": "account",
          "type": "address"
        },
        {
          "internalType": "uint256",
          "name": "id",
          "type": "uint256"
        }
      ],
      "name": "balanceOf",
      "outputs": [
        {
          "internalType": "uint256",
          "name": "",
          "type": "uint256"
        }
      ],
      "stateMutability": "view",
      "type": "function"
    },
    {
      "inputs": [
        {
          "internalType": "address[]",
          "name": "accounts",
          "type": "address[]"
        },
        {
          "internalType": "uint256[]",
          "name": "ids",
          "type": "uint256[]"
        }
      ],
      "name": "balanceOfBatch",
      "outputs": [
        {
          "internalType": "uint256[]",
          "name": "",
          "type": "uint256[]"
        }
      ],
      "stateMutability": "view",
      "type": "function"
    },
    {
      "inputs": [
        {
          "internalType": "address",
          "name": "account",
          "type": "address"
        },
        {
          "internalType": "address",
          "name": "operator",
          "type": "address"
        }
      ],
      "name": "isApprovedForAll",
      "outputs": [
        {
          "internalType": "bool",
          "name": "",
          "type": "bool"
        }
      ],
      "stateMutability": "view",
      "type": "function"
    },
    {
      "inputs": [],
      "name": "mintCastle",
      "outputs": [],
      "stateMutability": "nonpayable",
      "type": "function"
    },
    {
      "inputs": [],
      "name": "mintFarm",
      "outputs": [],
      "stateMutability": "nonpayable",
      "type": "function"
    },
    {
      "inputs": [],
      "name": "mintMill",
      "outputs": [],
      "stateMutability": "nonpayable",
      "type": "function"
    },
    {
      "inputs": [],
      "name": "mintMine",
      "outputs": [],
      "stateMutability": "nonpayable",
      "type": "function"
    },
    {
      "inputs": [],
      "name": "mintVillage",
      "outputs": [],
      "stateMutability": "nonpayable",
      "type": "function"
    },
    {
      "inputs": [
        {
          "internalType": "address",
          "name": "from",
          "type": "address"
        },
        {
          "internalType": "address",
          "name": "to",
          "type": "address"
        },
        {
          "internalType": "uint256[]",
          "name": "ids",
          "type": "uint256[]"
        },
        {
          "internalType": "uint256[]",
          "name": "amounts",
          "type": "uint256[]"
        },
        {
          "internalType": "bytes",
          "name": "data",
          "type": "bytes"
        }
      ],
      "name": "safeBatchTransferFrom",
      "outputs": [],
      "stateMutability": "nonpayable",
      "type": "function"
    },
    {
      "inputs": [
        {
          "internalType": "address",
          "name": "from",
          "type": "address"
        },
        {
          "internalType": "address",
          "name": "to",
          "type": "address"
        },
        {
          "internalType": "uint256",
          "name": "id",
          "type": "uint256"
        },
        {
          "internalType": "uint256",
          "name": "amount",
          "type": "uint256"
        },
        {
          "internalType": "bytes",
          "name": "data",
          "type": "bytes"
        }
      ],
      "name": "safeTransferFrom",
      "outputs": [],
      "stateMutability": "nonpayable",
      "type": "function"
    },
    {
      "inputs": [
        {
          "internalType": "address",
          "name": "operator",
          "type": "address"
        },
        {
          "internalType": "bool",
          "name": "approved",
          "type": "bool"
        }
      ],
      "name": "setApprovalForAll",
      "outputs": [],
      "stateMutability": "nonpayable",
      "type": "function"
    },
    {
      "inputs": [
        {
          "internalType": "bytes4",
          "name": "interfaceId",
          "type": "bytes4"
        }
      ],
      "name": "supportsInterface",
      "outputs": [
        {
          "internalType": "bool",
          "name": "",
          "type": "bool"
        }
      ],
      "stateMutability": "view",
      "type": "function"
    },
    {
      "inputs": [
        {
          "internalType": "uint256",
          "name": "",
          "type": "uint256"
        }
      ],
      "name": "uri",
      "outputs": [
        {
          "internalType": "string",
          "name": "",
          "type": "string"
        }
      ],
      "stateMutability": "view",
      "type": "function"
    }
  ],
  "bytecode": "0x60806040523480156200001157600080fd5b506040518060a00160405280606c8152602001620032a7606c91396200003d816200004460201b60201c565b5062000175565b80600290805190602001906200005c92919062000060565b5050565b8280546200006e9062000110565b90600052602060002090601f016020900481019282620000925760008555620000de565b82601f10620000ad57805160ff1916838001178555620000de565b82800160010185558215620000de579182015b82811115620000dd578251825591602001919060010190620000c0565b5b509050620000ed9190620000f1565b5090565b5b808211156200010c576000816000905550600101620000f2565b5090565b600060028204905060018216806200012957607f821691505b6020821081141562000140576200013f62000146565b5b50919050565b7f4e487b7100000000000000000000000000000000000000000000000000000000600052602260045260246000fd5b61312280620001856000396000f3fe608060405234801561001057600080fd5b50600436106101155760003560e01c80635e261594116100a2578063b3a9992e11610071578063b3a9992e146102a8578063bbe8dbca146102c6578063e0a43337146102d0578063e985e9c5146102da578063f242432a1461030a57610115565b80635e261594146102465780635fde1de0146102645780639333d6c01461026e578063a22cb4651461028c57610115565b80632eb2c2d6116100e95780632eb2c2d6146101c857806332e2d659146101e45780634e1273f4146101ee5780634e4f64de1461021e5780635061029d1461022857610115565b8062fdd58e1461011a57806301ffc9a71461014a5780630e89341c1461017a578063231e721b146101aa575b600080fd5b610134600480360381019061012f9190611f45565b610326565b6040516101419190612c06565b60405180910390f35b610164600480360381019061015f9190611fed565b6103ef565b6040516101719190612949565b60405180910390f35b610194600480360381019061018f919061203f565b6104d1565b6040516101a19190612964565b60405180910390f35b6101b2610565565b6040516101bf9190612c06565b60405180910390f35b6101e260048036038101906101dd9190611dbb565b61056a565b005b6101ec610960565b005b61020860048036038101906102039190611f81565b610a8c565b60405161021591906128f0565b60405180910390f35b610226610c3d565b005b610230610d1b565b60405161023d9190612c06565b60405180910390f35b61024e610d20565b60405161025b9190612c06565b60405180910390f35b61026c610d25565b005b610276610e04565b6040516102839190612c06565b60405180910390f35b6102a660048036038101906102a19190611f09565b610e09565b005b6102b0610f8a565b6040516102bd9190612c06565b60405180910390f35b6102ce610f8f565b005b6102d8611021565b005b6102f460048036038101906102ef9190611d7f565b61114d565b6040516103019190612949565b60405180910390f35b610324600480360381019061031f9190611e7a565b6111e1565b005b60008073ffffffffffffffffffffffffffffffffffffffff168373ffffffffffffffffffffffffffffffffffffffff161415610397576040517f08c379a000000000000000000000000000000000000000000000000000000000815260040161038e906129e6565b60405180910390fd5b60008083815260200190815260200160002060008473ffffffffffffffffffffffffffffffffffffffff1673ffffffffffffffffffffffffffffffffffffffff16815260200190815260200160002054905092915050565b60007fd9b67a26000000000000000000000000000000000000000000000000000000007bffffffffffffffffffffffffffffffffffffffffffffffffffffffff1916827bffffffffffffffffffffffffffffffffffffffffffffffffffffffff191614806104ba57507f0e89341c000000000000000000000000000000000000000000000000000000007bffffffffffffffffffffffffffffffffffffffffffffffffffffffff1916827bffffffffffffffffffffffffffffffffffffffffffffffffffffffff1916145b806104ca57506104c9826114f9565b5b9050919050565b6060600280546104e090612eb4565b80601f016020809104026020016040519081016040528092919081815260200182805461050c90612eb4565b80156105595780601f1061052e57610100808354040283529160200191610559565b820191906000526020600020905b81548152906001019060200180831161053c57829003601f168201915b50505050509050919050565b600081565b81518351146105ae576040517f08c379a00000000000000000000000000000000000000000000000000000000081526004016105a590612bc6565b60405180910390fd5b600073ffffffffffffffffffffffffffffffffffffffff168473ffffffffffffffffffffffffffffffffffffffff16141561061e576040517f08c379a000000000000000000000000000000000000000000000000000000000815260040161061590612a26565b60405180910390fd5b610626611563565b73ffffffffffffffffffffffffffffffffffffffff168573ffffffffffffffffffffffffffffffffffffffff16148061066c575061066b85610666611563565b61114d565b5b6106ab576040517f08c379a00000000000000000000000000000000000000000000000000000000081526004016106a290612a46565b60405180910390fd5b60006106b5611563565b90506106c581878787878761156b565b60005b84518110156108cb57600085828151811061070c577f4e487b7100000000000000000000000000000000000000000000000000000000600052603260045260246000fd5b602002602001015190506000858381518110610751577f4e487b7100000000000000000000000000000000000000000000000000000000600052603260045260246000fd5b60200260200101519050600080600084815260200190815260200160002060008b73ffffffffffffffffffffffffffffffffffffffff1673ffffffffffffffffffffffffffffffffffffffff168152602001908152602001600020549050818110156107f2576040517f08c379a00000000000000000000000000000000000000000000000000000000081526004016107e990612aa6565b60405180910390fd5b81816107fe9190612dca565b60008085815260200190815260200160002060008c73ffffffffffffffffffffffffffffffffffffffff1673ffffffffffffffffffffffffffffffffffffffff168152602001908152602001600020819055508160008085815260200190815260200160002060008b73ffffffffffffffffffffffffffffffffffffffff1673ffffffffffffffffffffffffffffffffffffffff16815260200190815260200160002060008282546108b09190612d74565b92505081905550505050806108c490612ee6565b90506106c8565b508473ffffffffffffffffffffffffffffffffffffffff168673ffffffffffffffffffffffffffffffffffffffff168273ffffffffffffffffffffffffffffffffffffffff167f4a39dc06d4c0dbc64b70af90fd698a233a518aa5d07e595d983b8c0526c8f7fb8787604051610942929190612912565b60405180910390a4610958818787878787611573565b505050505050565b600061096d336000610326565b116109ad576040517f08c379a00000000000000000000000000000000000000000000000000000000081526004016109a490612ae6565b60405180910390fd5b60006109ba336002610326565b116109fa576040517f08c379a00000000000000000000000000000000000000000000000000000000081526004016109f190612b86565b60405180910390fd5b6000610a07336003610326565b14610a47576040517f08c379a0000000000000000000000000000000000000000000000000000000008152600401610a3e90612a86565b60405180910390fd5b610a8a33600360016040518060400160405280600581526020017f3078303030000000000000000000000000000000000000000000000000000000815250611743565b565b60608151835114610ad2576040517f08c379a0000000000000000000000000000000000000000000000000000000008152600401610ac990612b66565b60405180910390fd5b6000835167ffffffffffffffff811115610b15577f4e487b7100000000000000000000000000000000000000000000000000000000600052604160045260246000fd5b604051908082528060200260200182016040528015610b435781602001602082028036833780820191505090505b50905060005b8451811015610c3257610bdc858281518110610b8e577f4e487b7100000000000000000000000000000000000000000000000000000000600052603260045260246000fd5b6020026020010151858381518110610bcf577f4e487b7100000000000000000000000000000000000000000000000000000000600052603260045260246000fd5b6020026020010151610326565b828281518110610c15577f4e487b7100000000000000000000000000000000000000000000000000000000600052603260045260246000fd5b60200260200101818152505080610c2b90612ee6565b9050610b49565b508091505092915050565b6000610c4a336000610326565b11610c8a576040517f08c379a0000000000000000000000000000000000000000000000000000000008152600401610c8190612ae6565b60405180910390fd5b6000610c97336001610326565b14610cd7576040517f08c379a0000000000000000000000000000000000000000000000000000000008152600401610cce90612ac6565b60405180910390fd5b610d19336001806040518060400160405280600581526020017f3078303030000000000000000000000000000000000000000000000000000000815250611743565b565b600181565b600481565b6000610d32336000610326565b11610d72576040517f08c379a0000000000000000000000000000000000000000000000000000000008152600401610d6990612ae6565b60405180910390fd5b6000610d7f336002610326565b14610dbf576040517f08c379a0000000000000000000000000000000000000000000000000000000008152600401610db690612b26565b60405180910390fd5b610e0233600260016040518060400160405280600581526020017f3078303030000000000000000000000000000000000000000000000000000000815250611743565b565b600381565b8173ffffffffffffffffffffffffffffffffffffffff16610e28611563565b73ffffffffffffffffffffffffffffffffffffffff161415610e7f576040517f08c379a0000000000000000000000000000000000000000000000000000000008152600401610e7690612b46565b60405180910390fd5b8060016000610e8c611563565b73ffffffffffffffffffffffffffffffffffffffff1673ffffffffffffffffffffffffffffffffffffffff16815260200190815260200160002060008473ffffffffffffffffffffffffffffffffffffffff1673ffffffffffffffffffffffffffffffffffffffff16815260200190815260200160002060006101000a81548160ff0219169083151502179055508173ffffffffffffffffffffffffffffffffffffffff16610f39611563565b73ffffffffffffffffffffffffffffffffffffffff167f17307eab39ab6107e8899845ad3d59bd9653f200f220920489ca2b5937696c3183604051610f7e9190612949565b60405180910390a35050565b600281565b6000610f9c336000610326565b14610fdc576040517f08c379a0000000000000000000000000000000000000000000000000000000008152600401610fd3906129c6565b60405180910390fd5b61101f33600060016040518060400160405280600581526020017f3078303030000000000000000000000000000000000000000000000000000000815250611743565b565b600061102e336001610326565b1161106e576040517f08c379a000000000000000000000000000000000000000000000000000000000815260040161106590612ba6565b60405180910390fd5b600061107b336003610326565b116110bb576040517f08c379a00000000000000000000000000000000000000000000000000000000081526004016110b290612b06565b60405180910390fd5b60006110c8336004610326565b14611108576040517f08c379a00000000000000000000000000000000000000000000000000000000081526004016110ff90612a66565b60405180910390fd5b61114b33600460016040518060400160405280600581526020017f3078303030000000000000000000000000000000000000000000000000000000815250611743565b565b6000600160008473ffffffffffffffffffffffffffffffffffffffff1673ffffffffffffffffffffffffffffffffffffffff16815260200190815260200160002060008373ffffffffffffffffffffffffffffffffffffffff1673ffffffffffffffffffffffffffffffffffffffff16815260200190815260200160002060009054906101000a900460ff16905092915050565b600073ffffffffffffffffffffffffffffffffffffffff168473ffffffffffffffffffffffffffffffffffffffff161415611251576040517f08c379a000000000000000000000000000000000000000000000000000000000815260040161124890612a26565b60405180910390fd5b611259611563565b73ffffffffffffffffffffffffffffffffffffffff168573ffffffffffffffffffffffffffffffffffffffff16148061129f575061129e85611299611563565b61114d565b5b6112de576040517f08c379a00000000000000000000000000000000000000000000000000000000081526004016112d590612a06565b60405180910390fd5b60006112e8611563565b90506113088187876112f9886118d9565b611302886118d9565b8761156b565b600080600086815260200190815260200160002060008873ffffffffffffffffffffffffffffffffffffffff1673ffffffffffffffffffffffffffffffffffffffff1681526020019081526020016000205490508381101561139f576040517f08c379a000000000000000000000000000000000000000000000000000000000815260040161139690612aa6565b60405180910390fd5b83816113ab9190612dca565b60008087815260200190815260200160002060008973ffffffffffffffffffffffffffffffffffffffff1673ffffffffffffffffffffffffffffffffffffffff168152602001908152602001600020819055508360008087815260200190815260200160002060008873ffffffffffffffffffffffffffffffffffffffff1673ffffffffffffffffffffffffffffffffffffffff168152602001908152602001600020600082825461145d9190612d74565b925050819055508573ffffffffffffffffffffffffffffffffffffffff168773ffffffffffffffffffffffffffffffffffffffff168373ffffffffffffffffffffffffffffffffffffffff167fc3d58168c5ae7397731d063d5bbf3d657854427343f4c083240f7aacaa2d0f6288886040516114da929190612c21565b60405180910390a46114f082888888888861199f565b50505050505050565b60007f01ffc9a7000000000000000000000000000000000000000000000000000000007bffffffffffffffffffffffffffffffffffffffffffffffffffffffff1916827bffffffffffffffffffffffffffffffffffffffffffffffffffffffff1916149050919050565b600033905090565b505050505050565b6115928473ffffffffffffffffffffffffffffffffffffffff16611b6f565b1561173b578373ffffffffffffffffffffffffffffffffffffffff1663bc197c8187878686866040518663ffffffff1660e01b81526004016115d895949392919061282e565b602060405180830381600087803b1580156115f257600080fd5b505af192505050801561162357506040513d601f19601f820116820180604052508101906116209190612016565b60015b6116b25761162f612fda565b8061163a5750611677565b806040517f08c379a000000000000000000000000000000000000000000000000000000000815260040161166e9190612964565b60405180910390fd5b6040517f08c379a00000000000000000000000000000000000000000000000000000000081526004016116a990612986565b60405180910390fd5b63bc197c8160e01b7bffffffffffffffffffffffffffffffffffffffffffffffffffffffff1916817bffffffffffffffffffffffffffffffffffffffffffffffffffffffff191614611739576040517f08c379a0000000000000000000000000000000000000000000000000000000008152600401611730906129a6565b60405180910390fd5b505b505050505050565b600073ffffffffffffffffffffffffffffffffffffffff168473ffffffffffffffffffffffffffffffffffffffff1614156117b3576040517f08c379a00000000000000000000000000000000000000000000000000000000081526004016117aa90612be6565b60405180910390fd5b60006117bd611563565b90506117de816000876117cf886118d9565b6117d8886118d9565b8761156b565b8260008086815260200190815260200160002060008773ffffffffffffffffffffffffffffffffffffffff1673ffffffffffffffffffffffffffffffffffffffff168152602001908152602001600020600082825461183d9190612d74565b925050819055508473ffffffffffffffffffffffffffffffffffffffff16600073ffffffffffffffffffffffffffffffffffffffff168273ffffffffffffffffffffffffffffffffffffffff167fc3d58168c5ae7397731d063d5bbf3d657854427343f4c083240f7aacaa2d0f6287876040516118bb929190612c21565b60405180910390a46118d28160008787878761199f565b5050505050565b60606000600167ffffffffffffffff81111561191e577f4e487b7100000000000000000000000000000000000000000000000000000000600052604160045260246000fd5b60405190808252806020026020018201604052801561194c5781602001602082028036833780820191505090505b509050828160008151811061198a577f4e487b7100000000000000000000000000000000000000000000000000000000600052603260045260246000fd5b60200260200101818152505080915050919050565b6119be8473ffffffffffffffffffffffffffffffffffffffff16611b6f565b15611b67578373ffffffffffffffffffffffffffffffffffffffff1663f23a6e6187878686866040518663ffffffff1660e01b8152600401611a04959493929190612896565b602060405180830381600087803b158015611a1e57600080fd5b505af1925050508015611a4f57506040513d601f19601f82011682018060405250810190611a4c9190612016565b60015b611ade57611a5b612fda565b80611a665750611aa3565b806040517f08c379a0000000000000000000000000000000000000000000000000000000008152600401611a9a9190612964565b60405180910390fd5b6040517f08c379a0000000000000000000000000000000000000000000000000000000008152600401611ad590612986565b60405180910390fd5b63f23a6e6160e01b7bffffffffffffffffffffffffffffffffffffffffffffffffffffffff1916817bffffffffffffffffffffffffffffffffffffffffffffffffffffffff191614611b65576040517f08c379a0000000000000000000000000000000000000000000000000000000008152600401611b5c906129a6565b60405180910390fd5b505b505050505050565b600080823b905060008111915050919050565b6000611b95611b9084612c7b565b612c4a565b90508083825260208201905082856020860282011115611bb457600080fd5b60005b85811015611be45781611bca8882611c98565b845260208401935060208301925050600181019050611bb7565b5050509392505050565b6000611c01611bfc84612ca7565b612c4a565b90508083825260208201905082856020860282011115611c2057600080fd5b60005b85811015611c505781611c368882611d6a565b845260208401935060208301925050600181019050611c23565b5050509392505050565b6000611c6d611c6884612cd3565b612c4a565b905082815260208101848484011115611c8557600080fd5b611c90848285612e72565b509392505050565b600081359050611ca781613090565b92915050565b600082601f830112611cbe57600080fd5b8135611cce848260208601611b82565b91505092915050565b600082601f830112611ce857600080fd5b8135611cf8848260208601611bee565b91505092915050565b600081359050611d10816130a7565b92915050565b600081359050611d25816130be565b92915050565b600081519050611d3a816130be565b92915050565b600082601f830112611d5157600080fd5b8135611d61848260208601611c5a565b91505092915050565b600081359050611d79816130d5565b92915050565b60008060408385031215611d9257600080fd5b6000611da085828601611c98565b9250506020611db185828601611c98565b9150509250929050565b600080600080600060a08688031215611dd357600080fd5b6000611de188828901611c98565b9550506020611df288828901611c98565b945050604086013567ffffffffffffffff811115611e0f57600080fd5b611e1b88828901611cd7565b935050606086013567ffffffffffffffff811115611e3857600080fd5b611e4488828901611cd7565b925050608086013567ffffffffffffffff811115611e6157600080fd5b611e6d88828901611d40565b9150509295509295909350565b600080600080600060a08688031215611e9257600080fd5b6000611ea088828901611c98565b9550506020611eb188828901611c98565b9450506040611ec288828901611d6a565b9350506060611ed388828901611d6a565b925050608086013567ffffffffffffffff811115611ef057600080fd5b611efc88828901611d40565b9150509295509295909350565b60008060408385031215611f1c57600080fd5b6000611f2a85828601611c98565b9250506020611f3b85828601611d01565b9150509250929050565b60008060408385031215611f5857600080fd5b6000611f6685828601611c98565b9250506020611f7785828601611d6a565b9150509250929050565b60008060408385031215611f9457600080fd5b600083013567ffffffffffffffff811115611fae57600080fd5b611fba85828601611cad565b925050602083013567ffffffffffffffff811115611fd757600080fd5b611fe385828601611cd7565b9150509250929050565b600060208284031215611fff57600080fd5b600061200d84828501611d16565b91505092915050565b60006020828403121561202857600080fd5b600061203684828501611d2b565b91505092915050565b60006020828403121561205157600080fd5b600061205f84828501611d6a565b91505092915050565b60006120748383612810565b60208301905092915050565b61208981612dfe565b82525050565b600061209a82612d13565b6120a48185612d41565b93506120af83612d03565b8060005b838110156120e05781516120c78882612068565b97506120d283612d34565b9250506001810190506120b3565b5085935050505092915050565b6120f681612e10565b82525050565b600061210782612d1e565b6121118185612d52565b9350612121818560208601612e81565b61212a81612fbc565b840191505092915050565b600061214082612d29565b61214a8185612d63565b935061215a818560208601612e81565b61216381612fbc565b840191505092915050565b600061217b603483612d63565b91507f455243313135353a207472616e7366657220746f206e6f6e204552433131353560008301527f526563656976657220696d706c656d656e7465720000000000000000000000006020830152604082019050919050565b60006121e1602883612d63565b91507f455243313135353a204552433131353552656365697665722072656a6563746560008301527f6420746f6b656e730000000000000000000000000000000000000000000000006020830152604082019050919050565b6000612247601b83612d63565b91507f796f7520616c7265616479206861766520612056696c6c6167652000000000006000830152602082019050919050565b6000612287602b83612d63565b91507f455243313135353a2062616c616e636520717565727920666f7220746865207a60008301527f65726f20616464726573730000000000000000000000000000000000000000006020830152604082019050919050565b60006122ed602983612d63565b91507f455243313135353a2063616c6c6572206973206e6f74206f776e6572206e6f7260008301527f20617070726f76656400000000000000000000000000000000000000000000006020830152604082019050919050565b6000612353602583612d63565b91507f455243313135353a207472616e7366657220746f20746865207a65726f20616460008301527f64726573730000000000000000000000000000000000000000000000000000006020830152604082019050919050565b60006123b9603283612d63565b91507f455243313135353a207472616e736665722063616c6c6572206973206e6f742060008301527f6f776e6572206e6f7220617070726f76656400000000000000000000000000006020830152604082019050919050565b600061241f601983612d63565b91507f796f7520616c72656164792068617665206120436173746c65000000000000006000830152602082019050919050565b600061245f601783612d63565b91507f796f7520616c726561647920686176652061204d696c6c0000000000000000006000830152602082019050919050565b600061249f602a83612d63565b91507f455243313135353a20696e73756666696369656e742062616c616e636520666f60008301527f72207472616e73666572000000000000000000000000000000000000000000006020830152604082019050919050565b6000612505601783612d63565b91507f796f7520616c726561647920686176652061204d696e650000000000000000006000830152602082019050919050565b6000612545601783612d63565b91507f796f75206e656564206861766520612056696c6c6167650000000000000000006000830152602082019050919050565b6000612585601483612d63565b91507f796f75206e65656420686176652061204d696c6c0000000000000000000000006000830152602082019050919050565b60006125c5601783612d63565b91507f796f7520616c726561647920686176652061204661726d0000000000000000006000830152602082019050919050565b6000612605602983612d63565b91507f455243313135353a2073657474696e6720617070726f76616c2073746174757360008301527f20666f722073656c6600000000000000000000000000000000000000000000006020830152604082019050919050565b600061266b602983612d63565b91507f455243313135353a206163636f756e747320616e6420696473206c656e67746860008301527f206d69736d6174636800000000000000000000000000000000000000000000006020830152604082019050919050565b60006126d1601483612d63565b91507f796f75206e65656420686176652061204661726d0000000000000000000000006000830152602082019050919050565b6000612711601483612d63565b91507f796f75206e65656420686176652061204d696e650000000000000000000000006000830152602082019050919050565b6000612751602883612d63565b91507f455243313135353a2069647320616e6420616d6f756e7473206c656e6774682060008301527f6d69736d617463680000000000000000000000000000000000000000000000006020830152604082019050919050565b60006127b7602183612d63565b91507f455243313135353a206d696e7420746f20746865207a65726f2061646472657360008301527f73000000000000000000000000000000000000000000000000000000000000006020830152604082019050919050565b61281981612e68565b82525050565b61282881612e68565b82525050565b600060a0820190506128436000830188612080565b6128506020830187612080565b8181036040830152612862818661208f565b90508181036060830152612876818561208f565b9050818103608083015261288a81846120fc565b90509695505050505050565b600060a0820190506128ab6000830188612080565b6128b86020830187612080565b6128c5604083018661281f565b6128d2606083018561281f565b81810360808301526128e481846120fc565b90509695505050505050565b6000602082019050818103600083015261290a818461208f565b905092915050565b6000604082019050818103600083015261292c818561208f565b90508181036020830152612940818461208f565b90509392505050565b600060208201905061295e60008301846120ed565b92915050565b6000602082019050818103600083015261297e8184612135565b905092915050565b6000602082019050818103600083015261299f8161216e565b9050919050565b600060208201905081810360008301526129bf816121d4565b9050919050565b600060208201905081810360008301526129df8161223a565b9050919050565b600060208201905081810360008301526129ff8161227a565b9050919050565b60006020820190508181036000830152612a1f816122e0565b9050919050565b60006020820190508181036000830152612a3f81612346565b9050919050565b60006020820190508181036000830152612a5f816123ac565b9050919050565b60006020820190508181036000830152612a7f81612412565b9050919050565b60006020820190508181036000830152612a9f81612452565b9050919050565b60006020820190508181036000830152612abf81612492565b9050919050565b60006020820190508181036000830152612adf816124f8565b9050919050565b60006020820190508181036000830152612aff81612538565b9050919050565b60006020820190508181036000830152612b1f81612578565b9050919050565b60006020820190508181036000830152612b3f816125b8565b9050919050565b60006020820190508181036000830152612b5f816125f8565b9050919050565b60006020820190508181036000830152612b7f8161265e565b9050919050565b60006020820190508181036000830152612b9f816126c4565b9050919050565b60006020820190508181036000830152612bbf81612704565b9050919050565b60006020820190508181036000830152612bdf81612744565b9050919050565b60006020820190508181036000830152612bff816127aa565b9050919050565b6000602082019050612c1b600083018461281f565b92915050565b6000604082019050612c36600083018561281f565b612c43602083018461281f565b9392505050565b6000604051905081810181811067ffffffffffffffff82111715612c7157612c70612f8d565b5b8060405250919050565b600067ffffffffffffffff821115612c9657612c95612f8d565b5b602082029050602081019050919050565b600067ffffffffffffffff821115612cc257612cc1612f8d565b5b602082029050602081019050919050565b600067ffffffffffffffff821115612cee57612ced612f8d565b5b601f19601f8301169050602081019050919050565b6000819050602082019050919050565b600081519050919050565b600081519050919050565b600081519050919050565b6000602082019050919050565b600082825260208201905092915050565b600082825260208201905092915050565b600082825260208201905092915050565b6000612d7f82612e68565b9150612d8a83612e68565b9250827fffffffffffffffffffffffffffffffffffffffffffffffffffffffffffffffff03821115612dbf57612dbe612f2f565b5b828201905092915050565b6000612dd582612e68565b9150612de083612e68565b925082821015612df357612df2612f2f565b5b828203905092915050565b6000612e0982612e48565b9050919050565b60008115159050919050565b60007fffffffff0000000000000000000000000000000000000000000000000000000082169050919050565b600073ffffffffffffffffffffffffffffffffffffffff82169050919050565b6000819050919050565b82818337600083830152505050565b60005b83811015612e9f578082015181840152602081019050612e84565b83811115612eae576000848401525b50505050565b60006002820490506001821680612ecc57607f821691505b60208210811415612ee057612edf612f5e565b5b50919050565b6000612ef182612e68565b91507fffffffffffffffffffffffffffffffffffffffffffffffffffffffffffffffff821415612f2457612f23612f2f565b5b600182019050919050565b7f4e487b7100000000000000000000000000000000000000000000000000000000600052601160045260246000fd5b7f4e487b7100000000000000000000000000000000000000000000000000000000600052602260045260246000fd5b7f4e487b7100000000000000000000000000000000000000000000000000000000600052604160045260246000fd5b6000601f19601f8301169050919050565b60008160e01c9050919050565b600060443d1015612fea5761308d565b60046000803e612ffb600051612fcd565b6308c379a0811461300c575061308d565b60405160043d036004823e80513d602482011167ffffffffffffffff821117156130385750505061308d565b808201805167ffffffffffffffff81111561305757505050505061308d565b8060208301013d85018111156130725750505050505061308d565b61307b82612fbc565b60208401016040528296505050505050505b90565b61309981612dfe565b81146130a457600080fd5b50565b6130b081612e10565b81146130bb57600080fd5b50565b6130c781612e1c565b81146130d257600080fd5b50565b6130de81612e68565b81146130e957600080fd5b5056fea2646970667358221220c5262634ab2c065579e9a38ae55b3d8c2c845104b68728259e498c7346be0e9c64736f6c6343000800003368747470733a2f2f676174657761792e70696e6174612e636c6f75642f697066732f516d544e333271424b59716e7976617471666e5538726136635955474e7870597a69536464436174456d6f704c522f6d657461646174612f6170692f6974656d2f7b69647d2e6a736f6e",
  "linkReferences": {},
  "deployedLinkReferences": {}
}