{
  "_format": "hh-sol-artifact-1",
  "contractName": "TinyVillage",
  "sourceName": "contracts/TinyVillage.sol",
  "abi": [
    {
      "inputs": [],
      "stateMutability": "nonpayable",
      "type": "constructor"
    },
    {
      "anonymous": false,
      "inputs": [
        {
          "indexed": true,
          "internalType": "address",
          "name": "account",
          "type": "address"
        },
        {
          "indexed": true,
          "internalType": "address",
          "name": "operator",
          "type": "address"
        },
        {
          "indexed": false,
          "internalType": "bool",
          "name": "approved",
          "type": "bool"
        }
      ],
      "name": "ApprovalForAll",
      "type": "event"
    },
    {
      "anonymous": false,
      "inputs": [
        {
          "indexed": true,
          "internalType": "address",
          "name": "operator",
          "type": "address"
        },
        {
          "indexed": true,
          "internalType": "address",
          "name": "from",
          "type": "address"
        },
        {
          "indexed": true,
          "internalType": "address",
          "name": "to",
          "type": "address"
        },
        {
          "indexed": false,
          "internalType": "uint256[]",
          "name": "ids",
          "type": "uint256[]"
        },
        {
          "indexed": false,
          "internalType": "uint256[]",
          "name": "values",
          "type": "uint256[]"
        }
      ],
      "name": "TransferBatch",
      "type": "event"
    },
    {
      "anonymous": false,
      "inputs": [
        {
          "indexed": true,
          "internalType": "address",
          "name": "operator",
          "type": "address"
        },
        {
          "indexed": true,
          "internalType": "address",
          "name": "from",
          "type": "address"
        },
        {
          "indexed": true,
          "internalType": "address",
          "name": "to",
          "type": "address"
        },
        {
          "indexed": false,
          "internalType": "uint256",
          "name": "id",
          "type": "uint256"
        },
        {
          "indexed": false,
          "internalType": "uint256",
          "name": "value",
          "type": "uint256"
        }
      ],
      "name": "TransferSingle",
      "type": "event"
    },
    {
      "anonymous": false,
      "inputs": [
        {
          "indexed": false,
          "internalType": "string",
          "name": "value",
          "type": "string"
        },
        {
          "indexed": true,
          "internalType": "uint256",
          "name": "id",
          "type": "uint256"
        }
      ],
      "name": "URI",
      "type": "event"
    },
    {
      "inputs": [],
      "name": "CASTLE",
      "outputs": [
        {
          "internalType": "uint256",
          "name": "",
          "type": "uint256"
        }
      ],
      "stateMutability": "view",
      "type": "function"
    },
    {
      "inputs": [],
      "name": "FARM",
      "outputs": [
        {
          "internalType": "uint256",
          "name": "",
          "type": "uint256"
        }
      ],
      "stateMutability": "view",
      "type": "function"
    },
    {
      "inputs": [],
      "name": "MILL",
      "outputs": [
        {
          "internalType": "uint256",
          "name": "",
          "type": "uint256"
        }
      ],
      "stateMutability": "view",
      "type": "function"
    },
    {
      "inputs": [],
      "name": "MINE",
      "outputs": [
        {
          "internalType": "uint256",
          "name": "",
          "type": "uint256"
        }
      ],
      "stateMutability": "view",
      "type": "function"
    },
    {
      "inputs": [],
      "name": "VILLAGE",
      "outputs": [
        {
          "internalType": "uint256",
          "name": "",
          "type": "uint256"
        }
      ],
      "stateMutability": "view",
      "type": "function"
    },
    {
      "inputs": [
        {
          "internalType": "address",
          "name": "account",
          "type": "address"
        },
        {
          "internalType": "uint256",
          "name": "id",
          "type": "uint256"
        }
      ],
      "name": "balanceOf",
      "outputs": [
        {
          "internalType": "uint256",
          "name": "",
          "type": "uint256"
        }
      ],
      "stateMutability": "view",
      "type": "function"
    },
    {
      "inputs": [
        {
          "internalType": "address[]",
          "name": "accounts",
          "type": "address[]"
        },
        {
          "internalType": "uint256[]",
          "name": "ids",
          "type": "uint256[]"
        }
      ],
      "name": "balanceOfBatch",
      "outputs": [
        {
          "internalType": "uint256[]",
          "name": "",
          "type": "uint256[]"
        }
      ],
      "stateMutability": "view",
      "type": "function"
    },
    {
      "inputs": [
        {
          "internalType": "address",
          "name": "account",
          "type": "address"
        },
        {
          "internalType": "address",
          "name": "operator",
          "type": "address"
        }
      ],
      "name": "isApprovedForAll",
      "outputs": [
        {
          "internalType": "bool",
          "name": "",
          "type": "bool"
        }
      ],
      "stateMutability": "view",
      "type": "function"
    },
    {
      "inputs": [],
      "name": "mintCastle",
      "outputs": [],
      "stateMutability": "nonpayable",
      "type": "function"
    },
    {
      "inputs": [],
      "name": "mintFarm",
      "outputs": [],
      "stateMutability": "nonpayable",
      "type": "function"
    },
    {
      "inputs": [],
      "name": "mintMill",
      "outputs": [],
      "stateMutability": "nonpayable",
      "type": "function"
    },
    {
      "inputs": [],
      "name": "mintMine",
      "outputs": [],
      "stateMutability": "nonpayable",
      "type": "function"
    },
    {
      "inputs": [],
      "name": "mintVillage",
      "outputs": [],
      "stateMutability": "nonpayable",
      "type": "function"
    },
    {
      "inputs": [
        {
          "internalType": "address",
          "name": "from",
          "type": "address"
        },
        {
          "internalType": "address",
          "name": "to",
          "type": "address"
        },
        {
          "internalType": "uint256[]",
          "name": "ids",
          "type": "uint256[]"
        },
        {
          "internalType": "uint256[]",
          "name": "amounts",
          "type": "uint256[]"
        },
        {
          "internalType": "bytes",
          "name": "data",
          "type": "bytes"
        }
      ],
      "name": "safeBatchTransferFrom",
      "outputs": [],
      "stateMutability": "nonpayable",
      "type": "function"
    },
    {
      "inputs": [
        {
          "internalType": "address",
          "name": "from",
          "type": "address"
        },
        {
          "internalType": "address",
          "name": "to",
          "type": "address"
        },
        {
          "internalType": "uint256",
          "name": "id",
          "type": "uint256"
        },
        {
          "internalType": "uint256",
          "name": "amount",
          "type": "uint256"
        },
        {
          "internalType": "bytes",
          "name": "data",
          "type": "bytes"
        }
      ],
      "name": "safeTransferFrom",
      "outputs": [],
      "stateMutability": "nonpayable",
      "type": "function"
    },
    {
      "inputs": [
        {
          "internalType": "address",
          "name": "operator",
          "type": "address"
        },
        {
          "internalType": "bool",
          "name": "approved",
          "type": "bool"
        }
      ],
      "name": "setApprovalForAll",
      "outputs": [],
      "stateMutability": "nonpayable",
      "type": "function"
    },
    {
      "inputs": [
        {
          "internalType": "bytes4",
          "name": "interfaceId",
          "type": "bytes4"
        }
      ],
      "name": "supportsInterface",
      "outputs": [
        {
          "internalType": "bool",
          "name": "",
          "type": "bool"
        }
      ],
      "stateMutability": "view",
      "type": "function"
    },
    {
      "inputs": [
        {
          "internalType": "uint256",
          "name": "",
          "type": "uint256"
        }
      ],
      "name": "uri",
      "outputs": [
        {
          "internalType": "string",
          "name": "",
          "type": "string"
        }
      ],
      "stateMutability": "view",
      "type": "function"
    }
  ],
  "bytecode": "0x60806040523480156200001157600080fd5b506040518060a00160405280606c81526020016200339a606c91396200003d816200004460201b60201c565b5062000175565b80600290805190602001906200005c92919062000060565b5050565b8280546200006e9062000110565b90600052602060002090601f016020900481019282620000925760008555620000de565b82601f10620000ad57805160ff1916838001178555620000de565b82800160010185558215620000de579182015b82811115620000dd578251825591602001919060010190620000c0565b5b509050620000ed9190620000f1565b5090565b5b808211156200010c576000816000905550600101620000f2565b5090565b600060028204905060018216806200012957607f821691505b6020821081141562000140576200013f62000146565b5b50919050565b7f4e487b7100000000000000000000000000000000000000000000000000000000600052602260045260246000fd5b61321580620001856000396000f3fe608060405234801561001057600080fd5b50600436106101155760003560e01c80635e261594116100a2578063b3a9992e11610071578063b3a9992e146102a8578063bbe8dbca146102c6578063e0a43337146102d0578063e985e9c5146102da578063f242432a1461030a57610115565b80635e261594146102465780635fde1de0146102645780639333d6c01461026e578063a22cb4651461028c57610115565b80632eb2c2d6116100e95780632eb2c2d6146101c857806332e2d659146101e45780634e1273f4146101ee5780634e4f64de1461021e5780635061029d1461022857610115565b8062fdd58e1461011a57806301ffc9a71461014a5780630e89341c1461017a578063231e721b146101aa575b600080fd5b610134600480360381019061012f9190611fe6565b610326565b604051610141919061287e565b60405180910390f35b610164600480360381019061015f919061208e565b6103ef565b60405161017191906125e1565b60405180910390f35b610194600480360381019061018f91906120e0565b6104d1565b6040516101a191906125fc565b60405180910390f35b6101b2610565565b6040516101bf919061287e565b60405180910390f35b6101e260048036038101906101dd9190611e5c565b61056a565b005b6101ec61060b565b005b61020860048036038101906102039190612022565b610737565b6040516102159190612588565b60405180910390f35b6102266108e8565b005b6102306109c6565b60405161023d919061287e565b60405180910390f35b61024e6109cb565b60405161025b919061287e565b60405180910390f35b61026c6109d0565b005b610276610aaf565b604051610283919061287e565b60405180910390f35b6102a660048036038101906102a19190611faa565b610ab4565b005b6102b0610aca565b6040516102bd919061287e565b60405180910390f35b6102ce610acf565b005b6102d8610b61565b005b6102f460048036038101906102ef9190611e20565b610c8d565b60405161030191906125e1565b60405180910390f35b610324600480360381019061031f9190611f1b565b610d21565b005b60008073ffffffffffffffffffffffffffffffffffffffff168373ffffffffffffffffffffffffffffffffffffffff161415610397576040517f08c379a000000000000000000000000000000000000000000000000000000000815260040161038e9061269e565b60405180910390fd5b60008083815260200190815260200160002060008473ffffffffffffffffffffffffffffffffffffffff1673ffffffffffffffffffffffffffffffffffffffff16815260200190815260200160002054905092915050565b60007fd9b67a26000000000000000000000000000000000000000000000000000000007bffffffffffffffffffffffffffffffffffffffffffffffffffffffff1916827bffffffffffffffffffffffffffffffffffffffffffffffffffffffff191614806104ba57507f0e89341c000000000000000000000000000000000000000000000000000000007bffffffffffffffffffffffffffffffffffffffffffffffffffffffff1916827bffffffffffffffffffffffffffffffffffffffffffffffffffffffff1916145b806104ca57506104c982610dc2565b5b9050919050565b6060600280546104e090612aed565b80601f016020809104026020016040519081016040528092919081815260200182805461050c90612aed565b80156105595780601f1061052e57610100808354040283529160200191610559565b820191906000526020600020905b81548152906001019060200180831161053c57829003601f168201915b50505050509050919050565b600081565b610572610e2c565b73ffffffffffffffffffffffffffffffffffffffff168573ffffffffffffffffffffffffffffffffffffffff1614806105b857506105b7856105b2610e2c565b610c8d565b5b6105f7576040517f08c379a00000000000000000000000000000000000000000000000000000000081526004016105ee9061263e565b60405180910390fd5b6106048585858585610e34565b5050505050565b6000610618336000610326565b11610658576040517f08c379a000000000000000000000000000000000000000000000000000000000815260040161064f9061275e565b60405180910390fd5b6000610665336002610326565b116106a5576040517f08c379a000000000000000000000000000000000000000000000000000000000815260040161069c906127fe565b60405180910390fd5b60006106b2336003610326565b146106f2576040517f08c379a00000000000000000000000000000000000000000000000000000000081526004016106e9906126fe565b60405180910390fd5b61073533600360016040518060400160405280600581526020017f30783030300000000000000000000000000000000000000000000000000000008152506111a2565b565b6060815183511461077d576040517f08c379a0000000000000000000000000000000000000000000000000000000008152600401610774906127de565b60405180910390fd5b6000835167ffffffffffffffff8111156107c0577f4e487b7100000000000000000000000000000000000000000000000000000000600052604160045260246000fd5b6040519080825280602002602001820160405280156107ee5781602001602082028036833780820191505090505b50905060005b84518110156108dd57610887858281518110610839577f4e487b7100000000000000000000000000000000000000000000000000000000600052603260045260246000fd5b602002602001015185838151811061087a577f4e487b7100000000000000000000000000000000000000000000000000000000600052603260045260246000fd5b6020026020010151610326565b8282815181106108c0577f4e487b7100000000000000000000000000000000000000000000000000000000600052603260045260246000fd5b602002602001018181525050806108d690612b50565b90506107f4565b508091505092915050565b60006108f5336000610326565b11610935576040517f08c379a000000000000000000000000000000000000000000000000000000000815260040161092c9061275e565b60405180910390fd5b6000610942336001610326565b14610982576040517f08c379a00000000000000000000000000000000000000000000000000000000081526004016109799061273e565b60405180910390fd5b6109c4336001806040518060400160405280600581526020017f30783030300000000000000000000000000000000000000000000000000000008152506111a2565b565b600181565b600481565b60006109dd336000610326565b11610a1d576040517f08c379a0000000000000000000000000000000000000000000000000000000008152600401610a149061275e565b60405180910390fd5b6000610a2a336002610326565b14610a6a576040517f08c379a0000000000000000000000000000000000000000000000000000000008152600401610a619061279e565b60405180910390fd5b610aad33600260016040518060400160405280600581526020017f30783030300000000000000000000000000000000000000000000000000000008152506111a2565b565b600381565b610ac6610abf610e2c565b8383611353565b5050565b600281565b6000610adc336000610326565b14610b1c576040517f08c379a0000000000000000000000000000000000000000000000000000000008152600401610b139061267e565b60405180910390fd5b610b5f33600060016040518060400160405280600581526020017f30783030300000000000000000000000000000000000000000000000000000008152506111a2565b565b6000610b6e336001610326565b11610bae576040517f08c379a0000000000000000000000000000000000000000000000000000000008152600401610ba59061281e565b60405180910390fd5b6000610bbb336003610326565b11610bfb576040517f08c379a0000000000000000000000000000000000000000000000000000000008152600401610bf29061277e565b60405180910390fd5b6000610c08336004610326565b14610c48576040517f08c379a0000000000000000000000000000000000000000000000000000000008152600401610c3f906126de565b60405180910390fd5b610c8b33600460016040518060400160405280600581526020017f30783030300000000000000000000000000000000000000000000000000000008152506111a2565b565b6000600160008473ffffffffffffffffffffffffffffffffffffffff1673ffffffffffffffffffffffffffffffffffffffff16815260200190815260200160002060008373ffffffffffffffffffffffffffffffffffffffff1673ffffffffffffffffffffffffffffffffffffffff16815260200190815260200160002060009054906101000a900460ff16905092915050565b610d29610e2c565b73ffffffffffffffffffffffffffffffffffffffff168573ffffffffffffffffffffffffffffffffffffffff161480610d6f5750610d6e85610d69610e2c565b610c8d565b5b610dae576040517f08c379a0000000000000000000000000000000000000000000000000000000008152600401610da59061263e565b60405180910390fd5b610dbb85858585856114c0565b5050505050565b60007f01ffc9a7000000000000000000000000000000000000000000000000000000007bffffffffffffffffffffffffffffffffffffffffffffffffffffffff1916827bffffffffffffffffffffffffffffffffffffffffffffffffffffffff1916149050919050565b600033905090565b8151835114610e78576040517f08c379a0000000000000000000000000000000000000000000000000000000008152600401610e6f9061283e565b60405180910390fd5b600073ffffffffffffffffffffffffffffffffffffffff168473ffffffffffffffffffffffffffffffffffffffff161415610ee8576040517f08c379a0000000000000000000000000000000000000000000000000000000008152600401610edf906126be565b60405180910390fd5b6000610ef2610e2c565b9050610f0281878787878761175c565b60005b84518110156110ff576000858281518110610f49577f4e487b7100000000000000000000000000000000000000000000000000000000600052603260045260246000fd5b602002602001015190506000858381518110610f8e577f4e487b7100000000000000000000000000000000000000000000000000000000600052603260045260246000fd5b60200260200101519050600080600084815260200190815260200160002060008b73ffffffffffffffffffffffffffffffffffffffff1673ffffffffffffffffffffffffffffffffffffffff1681526020019081526020016000205490508181101561102f576040517f08c379a00000000000000000000000000000000000000000000000000000000081526004016110269061271e565b60405180910390fd5b81810360008085815260200190815260200160002060008c73ffffffffffffffffffffffffffffffffffffffff1673ffffffffffffffffffffffffffffffffffffffff168152602001908152602001600020819055508160008085815260200190815260200160002060008b73ffffffffffffffffffffffffffffffffffffffff1673ffffffffffffffffffffffffffffffffffffffff16815260200190815260200160002060008282546110e491906129e1565b92505081905550505050806110f890612b50565b9050610f05565b508473ffffffffffffffffffffffffffffffffffffffff168673ffffffffffffffffffffffffffffffffffffffff168273ffffffffffffffffffffffffffffffffffffffff167f4a39dc06d4c0dbc64b70af90fd698a233a518aa5d07e595d983b8c0526c8f7fb87876040516111769291906125aa565b60405180910390a461118c818787878787611764565b61119a81878787878761176c565b505050505050565b600073ffffffffffffffffffffffffffffffffffffffff168473ffffffffffffffffffffffffffffffffffffffff161415611212576040517f08c379a00000000000000000000000000000000000000000000000000000000081526004016112099061285e565b60405180910390fd5b600061121c610e2c565b9050600061122985611953565b9050600061123685611953565b90506112478360008985858961175c565b8460008088815260200190815260200160002060008973ffffffffffffffffffffffffffffffffffffffff1673ffffffffffffffffffffffffffffffffffffffff16815260200190815260200160002060008282546112a691906129e1565b925050819055508673ffffffffffffffffffffffffffffffffffffffff16600073ffffffffffffffffffffffffffffffffffffffff168473ffffffffffffffffffffffffffffffffffffffff167fc3d58168c5ae7397731d063d5bbf3d657854427343f4c083240f7aacaa2d0f628989604051611324929190612899565b60405180910390a461133b83600089858589611764565b61134a83600089898989611a19565b50505050505050565b8173ffffffffffffffffffffffffffffffffffffffff168373ffffffffffffffffffffffffffffffffffffffff1614156113c2576040517f08c379a00000000000000000000000000000000000000000000000000000000081526004016113b9906127be565b60405180910390fd5b80600160008573ffffffffffffffffffffffffffffffffffffffff1673ffffffffffffffffffffffffffffffffffffffff16815260200190815260200160002060008473ffffffffffffffffffffffffffffffffffffffff1673ffffffffffffffffffffffffffffffffffffffff16815260200190815260200160002060006101000a81548160ff0219169083151502179055508173ffffffffffffffffffffffffffffffffffffffff168373ffffffffffffffffffffffffffffffffffffffff167f17307eab39ab6107e8899845ad3d59bd9653f200f220920489ca2b5937696c31836040516114b391906125e1565b60405180910390a3505050565b600073ffffffffffffffffffffffffffffffffffffffff168473ffffffffffffffffffffffffffffffffffffffff161415611530576040517f08c379a0000000000000000000000000000000000000000000000000000000008152600401611527906126be565b60405180910390fd5b600061153a610e2c565b9050600061154785611953565b9050600061155485611953565b905061156483898985858961175c565b600080600088815260200190815260200160002060008a73ffffffffffffffffffffffffffffffffffffffff1673ffffffffffffffffffffffffffffffffffffffff168152602001908152602001600020549050858110156115fb576040517f08c379a00000000000000000000000000000000000000000000000000000000081526004016115f29061271e565b60405180910390fd5b85810360008089815260200190815260200160002060008b73ffffffffffffffffffffffffffffffffffffffff1673ffffffffffffffffffffffffffffffffffffffff168152602001908152602001600020819055508560008089815260200190815260200160002060008a73ffffffffffffffffffffffffffffffffffffffff1673ffffffffffffffffffffffffffffffffffffffff16815260200190815260200160002060008282546116b091906129e1565b925050819055508773ffffffffffffffffffffffffffffffffffffffff168973ffffffffffffffffffffffffffffffffffffffff168573ffffffffffffffffffffffffffffffffffffffff167fc3d58168c5ae7397731d063d5bbf3d657854427343f4c083240f7aacaa2d0f628a8a60405161172d929190612899565b60405180910390a4611743848a8a86868a611764565b611751848a8a8a8a8a611a19565b505050505050505050565b505050505050565b505050505050565b61178b8473ffffffffffffffffffffffffffffffffffffffff16611c00565b1561194b578373ffffffffffffffffffffffffffffffffffffffff1663bc197c8187878686866040518663ffffffff1660e01b81526004016117d19594939291906124c6565b602060405180830381600087803b1580156117eb57600080fd5b505af192505050801561181c57506040513d601f19601f8201168201806040525081019061181991906120b7565b60015b6118c257611828612c26565b806308c379a01415611885575061183d6130ed565b806118485750611887565b806040517f08c379a000000000000000000000000000000000000000000000000000000000815260040161187c91906125fc565b60405180910390fd5b505b6040517f08c379a00000000000000000000000000000000000000000000000000000000081526004016118b99061261e565b60405180910390fd5b63bc197c8160e01b7bffffffffffffffffffffffffffffffffffffffffffffffffffffffff1916817bffffffffffffffffffffffffffffffffffffffffffffffffffffffff191614611949576040517f08c379a00000000000000000000000000000000000000000000000000000000081526004016119409061265e565b60405180910390fd5b505b505050505050565b60606000600167ffffffffffffffff811115611998577f4e487b7100000000000000000000000000000000000000000000000000000000600052604160045260246000fd5b6040519080825280602002602001820160405280156119c65781602001602082028036833780820191505090505b5090508281600081518110611a04577f4e487b7100000000000000000000000000000000000000000000000000000000600052603260045260246000fd5b60200260200101818152505080915050919050565b611a388473ffffffffffffffffffffffffffffffffffffffff16611c00565b15611bf8578373ffffffffffffffffffffffffffffffffffffffff1663f23a6e6187878686866040518663ffffffff1660e01b8152600401611a7e95949392919061252e565b602060405180830381600087803b158015611a9857600080fd5b505af1925050508015611ac957506040513d601f19601f82011682018060405250810190611ac691906120b7565b60015b611b6f57611ad5612c26565b806308c379a01415611b325750611aea6130ed565b80611af55750611b34565b806040517f08c379a0000000000000000000000000000000000000000000000000000000008152600401611b2991906125fc565b60405180910390fd5b505b6040517f08c379a0000000000000000000000000000000000000000000000000000000008152600401611b669061261e565b60405180910390fd5b63f23a6e6160e01b7bffffffffffffffffffffffffffffffffffffffffffffffffffffffff1916817bffffffffffffffffffffffffffffffffffffffffffffffffffffffff191614611bf6576040517f08c379a0000000000000000000000000000000000000000000000000000000008152600401611bed9061265e565b60405180910390fd5b505b505050505050565b6000808273ffffffffffffffffffffffffffffffffffffffff163b119050919050565b6000611c36611c31846128e7565b6128c2565b90508083825260208201905082856020860282011115611c5557600080fd5b60005b85811015611c855781611c6b8882611d39565b845260208401935060208301925050600181019050611c58565b5050509392505050565b6000611ca2611c9d84612913565b6128c2565b90508083825260208201905082856020860282011115611cc157600080fd5b60005b85811015611cf15781611cd78882611e0b565b845260208401935060208301925050600181019050611cc4565b5050509392505050565b6000611d0e611d098461293f565b6128c2565b905082815260208101848484011115611d2657600080fd5b611d31848285612aab565b509392505050565b600081359050611d4881613183565b92915050565b600082601f830112611d5f57600080fd5b8135611d6f848260208601611c23565b91505092915050565b600082601f830112611d8957600080fd5b8135611d99848260208601611c8f565b91505092915050565b600081359050611db18161319a565b92915050565b600081359050611dc6816131b1565b92915050565b600081519050611ddb816131b1565b92915050565b600082601f830112611df257600080fd5b8135611e02848260208601611cfb565b91505092915050565b600081359050611e1a816131c8565b92915050565b60008060408385031215611e3357600080fd5b6000611e4185828601611d39565b9250506020611e5285828601611d39565b9150509250929050565b600080600080600060a08688031215611e7457600080fd5b6000611e8288828901611d39565b9550506020611e9388828901611d39565b945050604086013567ffffffffffffffff811115611eb057600080fd5b611ebc88828901611d78565b935050606086013567ffffffffffffffff811115611ed957600080fd5b611ee588828901611d78565b925050608086013567ffffffffffffffff811115611f0257600080fd5b611f0e88828901611de1565b9150509295509295909350565b600080600080600060a08688031215611f3357600080fd5b6000611f4188828901611d39565b9550506020611f5288828901611d39565b9450506040611f6388828901611e0b565b9350506060611f7488828901611e0b565b925050608086013567ffffffffffffffff811115611f9157600080fd5b611f9d88828901611de1565b9150509295509295909350565b60008060408385031215611fbd57600080fd5b6000611fcb85828601611d39565b9250506020611fdc85828601611da2565b9150509250929050565b60008060408385031215611ff957600080fd5b600061200785828601611d39565b925050602061201885828601611e0b565b9150509250929050565b6000806040838503121561203557600080fd5b600083013567ffffffffffffffff81111561204f57600080fd5b61205b85828601611d4e565b925050602083013567ffffffffffffffff81111561207857600080fd5b61208485828601611d78565b9150509250929050565b6000602082840312156120a057600080fd5b60006120ae84828501611db7565b91505092915050565b6000602082840312156120c957600080fd5b60006120d784828501611dcc565b91505092915050565b6000602082840312156120f257600080fd5b600061210084828501611e0b565b91505092915050565b600061211583836124a8565b60208301905092915050565b61212a81612a37565b82525050565b600061213b82612980565b61214581856129ae565b935061215083612970565b8060005b838110156121815781516121688882612109565b9750612173836129a1565b925050600181019050612154565b5085935050505092915050565b61219781612a49565b82525050565b60006121a88261298b565b6121b281856129bf565b93506121c2818560208601612aba565b6121cb81612c48565b840191505092915050565b60006121e182612996565b6121eb81856129d0565b93506121fb818560208601612aba565b61220481612c48565b840191505092915050565b600061221c6034836129d0565b915061222782612c66565b604082019050919050565b600061223f602f836129d0565b915061224a82612cb5565b604082019050919050565b60006122626028836129d0565b915061226d82612d04565b604082019050919050565b6000612285601b836129d0565b915061229082612d53565b602082019050919050565b60006122a8602a836129d0565b91506122b382612d7c565b604082019050919050565b60006122cb6025836129d0565b91506122d682612dcb565b604082019050919050565b60006122ee6019836129d0565b91506122f982612e1a565b602082019050919050565b60006123116017836129d0565b915061231c82612e43565b602082019050919050565b6000612334602a836129d0565b915061233f82612e6c565b604082019050919050565b60006123576017836129d0565b915061236282612ebb565b602082019050919050565b600061237a6017836129d0565b915061238582612ee4565b602082019050919050565b600061239d6014836129d0565b91506123a882612f0d565b602082019050919050565b60006123c06017836129d0565b91506123cb82612f36565b602082019050919050565b60006123e36029836129d0565b91506123ee82612f5f565b604082019050919050565b60006124066029836129d0565b915061241182612fae565b604082019050919050565b60006124296014836129d0565b915061243482612ffd565b602082019050919050565b600061244c6014836129d0565b915061245782613026565b602082019050919050565b600061246f6028836129d0565b915061247a8261304f565b604082019050919050565b60006124926021836129d0565b915061249d8261309e565b604082019050919050565b6124b181612aa1565b82525050565b6124c081612aa1565b82525050565b600060a0820190506124db6000830188612121565b6124e86020830187612121565b81810360408301526124fa8186612130565b9050818103606083015261250e8185612130565b90508181036080830152612522818461219d565b90509695505050505050565b600060a0820190506125436000830188612121565b6125506020830187612121565b61255d60408301866124b7565b61256a60608301856124b7565b818103608083015261257c818461219d565b90509695505050505050565b600060208201905081810360008301526125a28184612130565b905092915050565b600060408201905081810360008301526125c48185612130565b905081810360208301526125d88184612130565b90509392505050565b60006020820190506125f6600083018461218e565b92915050565b6000602082019050818103600083015261261681846121d6565b905092915050565b600060208201905081810360008301526126378161220f565b9050919050565b6000602082019050818103600083015261265781612232565b9050919050565b6000602082019050818103600083015261267781612255565b9050919050565b6000602082019050818103600083015261269781612278565b9050919050565b600060208201905081810360008301526126b78161229b565b9050919050565b600060208201905081810360008301526126d7816122be565b9050919050565b600060208201905081810360008301526126f7816122e1565b9050919050565b6000602082019050818103600083015261271781612304565b9050919050565b6000602082019050818103600083015261273781612327565b9050919050565b600060208201905081810360008301526127578161234a565b9050919050565b600060208201905081810360008301526127778161236d565b9050919050565b6000602082019050818103600083015261279781612390565b9050919050565b600060208201905081810360008301526127b7816123b3565b9050919050565b600060208201905081810360008301526127d7816123d6565b9050919050565b600060208201905081810360008301526127f7816123f9565b9050919050565b600060208201905081810360008301526128178161241c565b9050919050565b600060208201905081810360008301526128378161243f565b9050919050565b6000602082019050818103600083015261285781612462565b9050919050565b6000602082019050818103600083015261287781612485565b9050919050565b600060208201905061289360008301846124b7565b92915050565b60006040820190506128ae60008301856124b7565b6128bb60208301846124b7565b9392505050565b60006128cc6128dd565b90506128d88282612b1f565b919050565b6000604051905090565b600067ffffffffffffffff82111561290257612901612bf7565b5b602082029050602081019050919050565b600067ffffffffffffffff82111561292e5761292d612bf7565b5b602082029050602081019050919050565b600067ffffffffffffffff82111561295a57612959612bf7565b5b61296382612c48565b9050602081019050919050565b6000819050602082019050919050565b600081519050919050565b600081519050919050565b600081519050919050565b6000602082019050919050565b600082825260208201905092915050565b600082825260208201905092915050565b600082825260208201905092915050565b60006129ec82612aa1565b91506129f783612aa1565b9250827fffffffffffffffffffffffffffffffffffffffffffffffffffffffffffffffff03821115612a2c57612a2b612b99565b5b828201905092915050565b6000612a4282612a81565b9050919050565b60008115159050919050565b60007fffffffff0000000000000000000000000000000000000000000000000000000082169050919050565b600073ffffffffffffffffffffffffffffffffffffffff82169050919050565b6000819050919050565b82818337600083830152505050565b60005b83811015612ad8578082015181840152602081019050612abd565b83811115612ae7576000848401525b50505050565b60006002820490506001821680612b0557607f821691505b60208210811415612b1957612b18612bc8565b5b50919050565b612b2882612c48565b810181811067ffffffffffffffff82111715612b4757612b46612bf7565b5b80604052505050565b6000612b5b82612aa1565b91507fffffffffffffffffffffffffffffffffffffffffffffffffffffffffffffffff821415612b8e57612b8d612b99565b5b600182019050919050565b7f4e487b7100000000000000000000000000000000000000000000000000000000600052601160045260246000fd5b7f4e487b7100000000000000000000000000000000000000000000000000000000600052602260045260246000fd5b7f4e487b7100000000000000000000000000000000000000000000000000000000600052604160045260246000fd5b600060033d1115612c455760046000803e612c42600051612c59565b90505b90565b6000601f19601f8301169050919050565b60008160e01c9050919050565b7f455243313135353a207472616e7366657220746f206e6f6e204552433131353560008201527f526563656976657220696d706c656d656e746572000000000000000000000000602082015250565b7f455243313135353a2063616c6c6572206973206e6f7420746f6b656e206f776e60008201527f6572206e6f7220617070726f7665640000000000000000000000000000000000602082015250565b7f455243313135353a204552433131353552656365697665722072656a6563746560008201527f6420746f6b656e73000000000000000000000000000000000000000000000000602082015250565b7f796f7520616c7265616479206861766520612056696c6c616765200000000000600082015250565b7f455243313135353a2061646472657373207a65726f206973206e6f742061207660008201527f616c6964206f776e657200000000000000000000000000000000000000000000602082015250565b7f455243313135353a207472616e7366657220746f20746865207a65726f20616460008201527f6472657373000000000000000000000000000000000000000000000000000000602082015250565b7f796f7520616c72656164792068617665206120436173746c6500000000000000600082015250565b7f796f7520616c726561647920686176652061204d696c6c000000000000000000600082015250565b7f455243313135353a20696e73756666696369656e742062616c616e636520666f60008201527f72207472616e7366657200000000000000000000000000000000000000000000602082015250565b7f796f7520616c726561647920686176652061204d696e65000000000000000000600082015250565b7f796f75206e656564206861766520612056696c6c616765000000000000000000600082015250565b7f796f75206e65656420686176652061204d696c6c000000000000000000000000600082015250565b7f796f7520616c726561647920686176652061204661726d000000000000000000600082015250565b7f455243313135353a2073657474696e6720617070726f76616c2073746174757360008201527f20666f722073656c660000000000000000000000000000000000000000000000602082015250565b7f455243313135353a206163636f756e747320616e6420696473206c656e67746860008201527f206d69736d617463680000000000000000000000000000000000000000000000602082015250565b7f796f75206e65656420686176652061204661726d000000000000000000000000600082015250565b7f796f75206e65656420686176652061204d696e65000000000000000000000000600082015250565b7f455243313135353a2069647320616e6420616d6f756e7473206c656e6774682060008201527f6d69736d61746368000000000000000000000000000000000000000000000000602082015250565b7f455243313135353a206d696e7420746f20746865207a65726f2061646472657360008201527f7300000000000000000000000000000000000000000000000000000000000000602082015250565b600060443d10156130fd57613180565b6131056128dd565b60043d036004823e80513d602482011167ffffffffffffffff8211171561312d575050613180565b808201805167ffffffffffffffff81111561314b5750505050613180565b80602083010160043d038501811115613168575050505050613180565b61317782602001850186612b1f565b82955050505050505b90565b61318c81612a37565b811461319757600080fd5b50565b6131a381612a49565b81146131ae57600080fd5b50565b6131ba81612a55565b81146131c557600080fd5b50565b6131d181612aa1565b81146131dc57600080fd5b5056fea2646970667358221220d0792077fe3310f269d6fe82365994916e5b4158a1e6a48c800e22d29e104b9964736f6c6343000801003368747470733a2f2f676174657761792e70696e6174612e636c6f75642f697066732f516d544e333271424b59716e7976617471666e5538726136635955474e7870597a69536464436174456d6f704c522f6d657461646174612f6170692f6974656d2f7b69647d2e6a736f6e",
  "linkReferences": {},
  "deployedLinkReferences": {}
}